:0300000002047B7C
:10000300C0E0C0D0C000C001C002E4F538F539F546
:100013003AF53BF53C7A20E533A2E779047830E6FC
:1000230033F608D9FA79057838E636D4F608D9F9DB
:10003300DAE5D002D001D000D0D0D0E022C0E0C0B9
:10004300D0C000C001C002E4F538F539F53AF53BFC
:10005300F53C7A20E533A2E779047830E633F608F5
:10006300D9FA79057838C0D0E6243320E70224D0C2
:1000730020E30224FDD0D033F608D9EADAD6D00241
:10008300D001D000D0D0D0E022C0E0C0D0C000C0AA
:1000930001C0027A207905C3783CE613C0D030E76B
:1000A3000224D030E30224FDF618D0D0D9EC790431
:1000B3007833E613F618D9FADADBD002D001D00090
:1000C300D0D0D0E022C0E0C0D0E5302534F530E513
:1000D300313535F531E5323536F532E5333537F53A
:1000E30033D0D0D0E022C0E0C0D0C3E5309534F5A2
:1000F30030E5319535F531E5329536F532E5339511
:1001030037F533D0D0D0E022C0E0C0D0C3E530957E
:1001130034E5319535E5329536E53395379200D0A0
:10012300D0D0E022C0E0C0D0C3E5349530E53595AA
:1001330031E5369532E53795339200D0D0D0E022C1
:10014300C0E0C0D0C200C3E53495307014E53595E6
:1001530031700EE53695327008E53795337002D26B
:1001630000D0D0D0E0221201432000030201272255
:1001730012014320000302010B22C0E0C0F0C0D0F3
:10018300C000C001C002C003E5308534F0A4F8A963
:10019300F0E5318534F0A429F9E435F0FAE530854A
:1001A30035F0A429F9E5F03AFAE433FBE532853476
:1001B300F0A42AFAE5F03BFBE5318535F0A42AFAF1
:1001C300E5F03BFBE5308536F0A42AFAE5F03BFB8E
:1001D300E5338534F0A42BFBE5328535F0A42BFB06
:1001E300E5318536F0A42BFBE5308537F0A42BFBF6
:1001F3008B338A3289318830D003D002D001D000CA
:10020300D0D0D0F0D0E022C0E0C0D0C000C001C048
:1002130002C003C0047C20E4F8F9FAFBC3E53033E1
:10022300F530E53133F531E53233F532E53333F586
:1002330033E833F8E933F9EA33FAEB33FBC3E895F0
:1002430034E99535EA9536EB95374013E89534F85C
:10025300E99535F9EA9536FAEB9537FB433001DC3E
:10026300BBD004D003D002D001D000D0D0D0E02244
:10027300C00078B10000D8FCD00022C000C00179D2
:100283002D78A6D8FED9FADAF6D001D00022D2937F
:10029300120273C29322A2E792B5A2E692B4A2E538
:1002A30092B3A2E492B2120291120273A2E392B544
:1002B300A2E292B4A2E192B3A2E092B2120291221C
:1002C300D291020299C291020299C293C2927433EB
:1002D3001202C874331202C874321202C87428128C
:1002E30002C8740C1202C874011202C8C0027A0256
:1002F30012027ED00222E49360061202C3A380F6A8
:1003030022444044800202C8C0E0E8C4540F443091
:100313001202C3E8540F44301202C3D0E022C0E0FB
:0E032300E8C4540F4430E8540F4430D0E022B8
:10033100C0E0740714120304D0E0C000A83C12030B
:100341000BD000C000A83B12030BD000C000A83A9C
:1003510012030BD000C000A83912030BD000C0005B
:10036100A83812030BD000C0E0740714120304D0A4
:10037100E0E53C54F0C46003020416C0E0742012AE
:1003810002C3D0E0E53C540F6003020416C0E074E0
:10039100201202C3D0E0E53B54F0C460030204160E
:1003A100C0E074201202C3D0E0E53B540F600302A9
:1003B1000416C0E074201202C3D0E0E53A54F0C440
:1003C1006003020416C0E074201202C3D0E0E53AD3
:1003D100540F6003020416C0E074201202C3D0E07F
:1003E100E53954F0C46003020416C0E0742012021F
:1003F100C3D0E0E539540F6003020416C0E0742055
:100401001202C3D0E0E53854F0C47009C0E0742092
:100411001202C3D0E022C0E0740714120304D0E03A
:10042100C0E074201202C3D0E0C000A83B12030B4D
:10043100D000C000A83A12030BD000C0E0742E1205
:1004410002C3D0E0C000A83912030BD000C000A83D
:100451003812030BD0002220C5FDC0027A321202ED
:100461007ED00220C5F130C5FD2254657374207819
:100471007820616E737765723A0075817F75E60049
:1004810075E7001202CDC0E0740114120306D0E03A
:10049100C083C082C0E090046B1202F9D0E0D08228
:1004A100D083C0E0740614120306D0E0C0007801C6
:1004B10012030BD0007530D27531047532007533DB
:1004C100007534D775351175360075370012017D09
:1004D100120003120331120458C0E074061412030F
:1004E10006D0E0C000780212030BD0007530D2753F
:1004F10031047532007533007534D7753511753691
:100501000075370012017D120003120331120458E5
:10051100C0E0740614120306D0E0C0007803120391
:100521000BD00075305E7531FE753255753300752F
:1005310034D275350475360075370012020A12007F
:1005410003120331120458C0E0740614120306D0DA
:10055100E0C000780412030BD0007530D27531046D
:100561007532007533007534D775351175360075E0
:1005710037001200C8120003120331120458C0E000
:10058100740614120306D0E0C000780512030BD0E4
:10059100007530D77531117532007533007534D25D
:1005A1007535047536007537001200E91200031223
:1005B1000331120458C0E0740614120306D0E0C0DF
:1005C10000780612030BD0007530E87531007532E2
:1005D100007533007534E8753500753600753700E0
:1005E10012017D7534AC75358A7536007537001288
:1005F100017D75347175350075360075370012024D
:0D0601000A1200031204171204580204A389
:00000001FF
