:030000000205A84E
:0100030032CA
:03000B000203816C
:0100130032BA
:01001B0032B2
:0100230032AA
:01002B0032A2
:10002C00C00078B10000D8FCD00022C000C001791B
:10003C002D78A6D8FED9FADAF6D001D00022D293C8
:10004C0012002CC29322A2E792B5A2E692B4A2E5CA
:10005C0092B3A2E492B212004A12002CA2E392B51F
:10006C00A2E292B4A2E192B3A2E092B212004A22AE
:10007C00D291020052C291020052C293C2927433C6
:10008C0012008174331200817432120081742812B0
:10009C000081740C1200817401120081C0027A027A
:1000AC00120037D00222E493600612007CA380F683
:1000BC002244404480020081C0E0E8C4540F443024
:1000CC0012007CE8540F443012007CD0E0223099AE
:1000DC00FDC299F59922C0E0E8C4540F44301200D7
:0C00EC00DAE8540F44301200DAD0E022B1
:1000F800C0E0C0D0C000C001C002E4F53CF53DF549
:100108003EF53FF5407A20E537A2E779047834E6F2
:1001180033F608D9FA7905783CE636D4F608D9F9E1
:10012800DAE5D002D001D000D0D0D0E022C0E0C0C3
:10013800D0C000C001C002E4F53CF53DF53EF53FF6
:10014800F5407A20E537A2E779047834E633F608F3
:10015800D9FA7905783CC0D0E6243320E70224D0C8
:1001680020E30224FDD0D033F608D9EADAD6D0024B
:10017800D001D000D0D0D0E022C0E0C0D0C000C0B4
:1001880001C0027A207905C37840E613C0D030E771
:100198000224D030E30224FDF618D0D0D9EC79043B
:1001A8007837E613F618D9FADADBD002D001D00096
:1001B800D0D0D0E022C0E0C0D0E5342538F534E511
:1001C800353539F535E536353AF536E537353BF524
:1001D80037D0D0D0E022C0E0C0D0C3E5349538F5A0
:1001E80034E5359539F535E536953AF536E53795FB
:1001F8003BF537D0D0D0E022C0E0C0D0C3E534957D
:1002080038E5359539E536953AE537953B9200D08E
:10021800D0D0E022C0E0C0D0C3E5389534E53995A8
:1002280035E53A9536E53B95379200D0D0D0E022B7
:10023800C0E0C0D0C200C3E53895347014E53995E4
:1002480035700EE53A95367008E53B95377002D261
:1002580000D0D0D0E02212023820000302021C2273
:1002680012023820000302020022C0E0C0F0C0D011
:10027800C000C001C002C003E5348538F0A4F8A965
:10028800F0E5358538F0A429F9E435F0FAE5348548
:1002980039F0A429F9E5F03AFAE433FBE536853874
:1002A800F0A42AFAE5F03BFBE5358539F0A42AFAF3
:1002B800E5F03BFBE534853AF0A42AFAE5F03BFB90
:1002C800E5378538F0A42BFBE5368539F0A42BFB00
:1002D800E535853AF0A42BFBE534853BF0A42BFBF0
:1002E8008B378A3689358834D003D002D001D000C4
:1002F800D0D0D0F0D0E022C0E0C0D0C000C001C053
:1003080002C003C0047C20E4F8F9FAFBC3E53433E7
:10031800F534E53533F535E53633F536E53733F578
:1003280037E833F8E933F9EA33FAEB33FBC3E895F6
:1003380038E99539EA953AEB953B4013E89538F852
:10034800E99539F9EA953AFAEB953BFB433401DC38
:10035800BBD004D003D002D001D000D0D0D0E0224E
:10036800E58954F04401F589758CEA758AE875F4D5
:10037800EA75F2E8D2A9D28C22B2B732D2A2C2A3CD
:1003880022C0E079007A08E833F892A1D2A3A2A2A9
:10039800E933F9C2A3DAF0D0E02279DE78A6D8FEF4
:1003A800D9FA438780759852759B00759AF4759BA6
:1003B8001E223099FDC299F599223098FDC298E520
:1003C8009922E49360061203BAA380F622784112B8
:1003D80003C2C0E0C39410D0E04004F60880F0E403
:1003E800F622C000A8401200C4D000C000A83F12E6
:1003F80000C4D000C000A83E1200C4D000C000A8AD
:100408003D1200C4D000C000A83C1200C4D0002295
:10041800C0E0742012007CD0E0C000A83F1200C4E5
:10042800D000C000A83E1200C4D000C0E0742E1254
:10043800007CD0E0C000A83D1200C4D000C000A8D5
:100448003C1200C4D0002220C5FDC0027A3212003E
:1004580037D00220C5F130C5FD227538197539002D
:10046800753A00753B0012020020002675381B758E
:100478003900753A00753B001202002000317538CA
:100488001D753900753A00753B0012020020003CCA
:100498008057C0E07401141200BDD0E0C083C08250
:1004A800C0E09005721200B2D0E0D082D08322C0A2
:1004B800E07401141200BDD0E0C083C082C0E09097
:1004C800057C1200B2D0E0D082D08322C0E0740153
:1004D800141200BDD0E0C083C082C0E090058C1229
:1004E80000B2D0E0D082D08322C0E07401141200A0
:1004F800BDD0E0C083C082C0E09005991200B2D0A0
:10050800E0D082D08312051122120368208313C021
:10051800027A32120037D0022083073083FDC28C62
:10052800C2A92248656C6C6F2C20576F726C6421CD
:100538000D0A00676F6F640D0A00566F6C7461676F
:10054800652069733A0D0A0054656D7065726174AF
:100558007572652069733A0D0A000D0A0054656DBD
:1005680070657261747572653A0042756E646C6587
:10057800205570005468697320697320506572664D
:1005880065637400546F6F20486F742C205547487A
:1005980000464952452046495245204649524500A1
:1005A80075817F1200861203A212038475E6007516
:1005B800E700D2AFC0E07401141200BFD0E0C083DE
:1005C800C082C0E09005651200B2D0E0D082D0832E
:1005D800C0E0740F141200BFD0E074DF12007CC0BA
:1005E800E07410141200BFD0E0744312007CC2A063
:1005F80078011203897880120389E95403F5317868
:10060800551203898930D2A07534007535007536C6
:1006180000753700E530F534E531F535900562753C
:100628003400753500753600753700753800753932
:1006380000753A00753B00E530F534E531F5357560
:10064800389A753901753A00753B0012027275388F
:10065800FF753903753A00753B001202FF753811B2
:10066800753901753A00753B001201DEC0027AFF48
:10067800120037D002C0027AFF120037D00290056C
:10068800501200F8C000A83C1200E2D000900562A9
:100698001203CAC0E0740D141200BFD0E0C000A855
:0C06A8003C1200C4D0001204620205F6EF
:00000001FF
