:030000000203EA0E
:10000300C00078B10000D8FCD00022C000C0017944
:100013002D78A6D8FED9FADAF6D001D00022D293F1
:10002300120003C29322A2E792B5A2E692B4A2E51C
:1000330092B3A2E492B2120021120003A2E392B59A
:10004300A2E292B4A2E192B3A2E092B21200212200
:10005300D291020029C291020029C293C292743341
:100063001200587433120058743212005874281254
:100073000058740C1200587401120058C0027A021E
:1000830012000ED00222E4936006120053A380F6FE
:100093002244404480020058C0E0E8C4540F443076
:1000A300120053E8540F4430120053D0E022C0E052
:0E00B300E8C4540F4430E8540F4430D0E0222B
:1000C100C0E0C0D0C000C001C002E4F53CF53DF580
:1000D1003EF53FF5407A20E537A2E779047834E62A
:1000E10033F608D9FA7905783CE636D4F608D9F919
:1000F100DAE5D002D001D000D0D0D0E022C0E0C0FB
:10010100D0C000C001C002E4F53CF53DF53EF53F2D
:10011100F5407A20E537A2E779047834E633F6082A
:10012100D9FA7905783CC0D0E6243320E70224D0FF
:1001310020E30224FDD0D033F608D9EADAD6D00282
:10014100D001D000D0D0D0E022C0E0C0D0C000C0EB
:1001510001C0027A207905C37840E613C0D030E7A8
:100161000224D030E30224FDF618D0D0D9EC790472
:100171007837E613F618D9FADADBD002D001D000CD
:10018100D0D0D0E022C0E0C0D0E5342538F534E548
:10019100353539F535E536353AF536E537353BF55B
:1001A10037D0D0D0E022C0E0C0D0C3E5349538F5D7
:1001B10034E5359539F535E536953AF536E5379532
:1001C1003BF537D0D0D0E022C0E0C0D0C3E53495B4
:1001D10038E5359539E536953AE537953B9200D0C6
:1001E100D0D0E022C0E0C0D0C3E5389534E53995E0
:1001F10035E53A9536E53B95379200D0D0D0E022EF
:10020100C0E0C0D0C200C3E53895347014E539951B
:1002110035700EE53A95367008E53B95377002D298
:1002210000D0D0D0E0221202012000030201E52219
:100231001202012000030201C922C0E0C0F0C0D0B7
:10024100C000C001C002C003E5348538F0A4F8A99C
:10025100F0E5358538F0A429F9E435F0FAE534857F
:1002610039F0A429F9E5F03AFAE433FBE5368538AB
:10027100F0A42AFAE5F03BFBE5358539F0A42AFA2A
:10028100E5F03BFBE534853AF0A42AFAE5F03BFBC7
:10029100E5378538F0A42BFBE5368539F0A42BFB37
:1002A100E535853AF0A42BFBE534853BF0A42BFB27
:1002B1008B378A3689358834D003D002D001D000FB
:1002C100D0D0D0F0D0E022C0E0C0D0C000C001C08A
:1002D10002C003C0047C20E4F8F9FAFBC3E534331F
:1002E100F534E53533F535E53633F536E53733F5B0
:1002F10037E833F8E933F9EA33FAEB33FBC3E8952E
:1003010038E99539EA953AEB953B4013E89538F889
:10031100E99539F9EA953AFAEB953BFB433401DC6F
:10032100BBD004D003D002D001D000D0D0D0E02285
:10033100D2A2C2A322C0E079007A08E833F892A1E0
:10034100D2A3A2A2E933F9C2A3DAF0D0E02279DE86
:1003510078A6D8FED9FA438780759852759B0075A7
:100361009AF4759B1E223099FDC299F59922309815
:10037100FDC298E59922E4936006120367A380F613
:1003810022784112036FC0E0C39410D0E04004F61C
:100391000880F0E4F622C000A84012009BD000C003
:1003A10000A83F12009BD000C000A83E12009BD0C5
:1003B10000C000A83D12009BD000C000A83C120064
:1003C1009BD0002248656C6C6F2C20576F726C6457
:1003D100210D0A00676F6F640D0A00566F6C74611E
:1003E10067652069733A0D0A0075817F12005D12FD
:1003F100034F120331C0E0740114120096D0E0C023
:1004010083C082C0E09003C5120089D0E0D082D0C1
:1004110083C2A078011203367880120336E95403AF
:10042100F53178551203368930D2A0E530F53CC05C
:10043100E0740114120094D0E0C000A83C12009BAB
:10044100D000C0027AFF12000ED002C0027AFF1261
:10045100000ED002C0E0740714120094D0E0120321
:100461009785303C12014AC0027AFF12000ED00279
:10047100C0027AFF12000ED0027534307535007556
:100481003600753700753800753910753A00753BBF
:100491000012023B7538FF753903753A00753B0050
:1004A1001202C87538E8753903753A00753B0012B8
:1004B10002C81200C1C0E0740714120096D0E01205
:1004C10003979003DC120377C000A83C1200B1D05F
:1004D10000C0027AFF12000ED002C0027AFF1200A1
:0604E1000ED0020204121D
:00000001FF
