:03000000020111E9
:10000300C00078B10000D8FCD00022C000C0017944
:100013002D78A6D8FED9FADAF6D001D00022D293F1
:10002300120003C29322A2E792B5A2E692B4A2E51C
:1000330092B3A2E492B2120021120003A2E392B59A
:10004300A2E292B4A2E192B3A2E092B21200212200
:10005300D291020029C291020029C293C292743341
:100063001200587433120058743212005874281254
:100073000058740C1200587401120058C0027A021E
:1000830012000ED00222E4936006120053A380F6FE
:100093002244404480020058C0E0E8C4540F443076
:1000A300120053E8540F4430120053D0E022D2A27E
:1000B300C2A322C0E079007A08E833F892A1D2A360
:1000C300A2A2E933F9C2A3DAF0D0E02279DE78A65E
:1000D300D8FED9FA438780759852759B00759AF4B8
:1000E300759B1E223099FDC299F59922E49360060F
:1000F3001200E7A380F62248656C6C6F2C20576FC3
:10010300726C64210D0A00676F6F640D0A007581BC
:100113007F1200CF1200B1C2A078011200B678801E
:100123001200B6E95403F53178551200B68930D27E
:10013300A0E530B400089000FA1200EF80D99001D6
:0F0143000A1200EFC0027AC812000ED00280C864
:00000001FF
